:100000000C9434000C9451000C9451000C94510049
:100010000C9451000C9451000C9451000C9451001C
:100020000C9451000C9451000C9451000C9451000C
:100030000C9451000C9451000C9451000C945100FC
:100040000C9451000C9451000C9451000C945100EC
:100050000C9451000C9451000C9451000C945100DC
:100060000C9451000C94510011241FBECFEFD8E026
:10007000DEBFCDBF11E0A0E0B1E0EAE5F8E002C0EC
:1000800005900D92AC30B107D9F721E0ACE0B1E0BA
:1000900001C01D92AF30B207E1F70E94CB020C9471
:1000A0002B040C9400003D98089586B185FB8827A9
:1000B00080F991E089270895509A519A529A539A5B
:1000C000549A559A569A579A229A219A209A0895A4
:1000D00057982A98299A289A28984F99FCCF579A86
:1000E00029980895882314F45F9A01C05F9886FFC9
:1000F00002C05E9A01C05E9885FF02C05D9A01C091
:100100005D9884FF02C05C9A01C05C9883FF02C0C6
:100110005B9A01C05B9882FF02C05A9A01C05A984C
:1001200081FF02C0599A01C0599880FF02C0589AB5
:10013000089558980895CF93C82F61110E946800C0
:100140008C2F0E9472002A982998289A2898CF917B
:10015000089561E00E949B00089581E00E94A9003B
:10016000089582E00E94A900089586E00E94A900F7
:1001700008958CE00E94A900089588E00E94A900DB
:100180000895CF93C82F0E9468008C2F0E947200A0
:100190002A9A2998289A2898CF910895623011F4C4
:1001A00020E401C020E09EEF980F973218F49FEFF3
:1001B000980F292B822F0895CF93C82F862F642F55
:1001C0000E94CE0080680E94A9008C2F0E94C1006E
:1001D000CF9108950E94CF020895EF92FF921F934E
:1001E000CF93DF9300D0CDB7DEB77C01162F1982F5
:1001F000CE0101960E94E6036981662351F016172D
:1002000020F0C7010E94F90304C0612FC7010E94BA
:10021000F9031A82CE0102960E9425048A8186FF84
:1002200003C080E40E9452038A810F900F90DF91F7
:10023000CF911F91FF90EF90089580910D01813033
:1002400011F48FE301C080E00E943403089580918F
:100250000501813011F483E001C080E00E94750344
:10026000089580910501813089F090910D019130C0
:1002700039F4813039F480E001C084E0836003C048
:1002800080E001C082E00E947A03089580910D0110
:10029000813099F384E0F7CF80910C010E945C03D8
:1002A0000895CF9380910A01813021F0823021F4AA
:1002B0008CE003C088E001C080E0909109019111B9
:1002C00001C0826090910E01913009F481600E941A
:1002D0002F03C82F80910E01813049F480910901CC
:1002E000811103C00E94D90202C00E94D7028C2F44
:1002F000CF91089580910901882329F01092090176
:100300000E945101089580E00895809109018111B2
:1003100006C081E0809309010E945101089580E0A8
:100320000895809108010E94480308958091070173
:10033000813011F488E001C080E09091060199239A
:1003400059F0913011F4826007C0923011F484604A
:1003500003C0933009F486600E944D03089580E045
:1003600091E00E94AF030895CF9380E00E9457036D
:1003700080E00E94610380E00E94660380E00E94AA
:100380006B0380E00E9470030E941D0183E00E94C5
:1003900039038FE10E94430383E00E943E030E94E1
:1003A00027010E9431010E944C010E9491010E948C
:1003B0009601E0E0F1E0C1E0C08382E0818383E068
:1003C000828384E08383C4830E94AF010E9403037D
:1003D0000E94FD0280E70E945203C0930E010E941A
:1003E0007A01CF9108950E945C0088E30E94A900E1
:1003F0000E94B1000E94B5000E94AD0008950F93C5
:100400001F93CF93DF93D82F162F042FC9E28C9F11
:10041000C12D1124C295CF7080E38C0F0E94DC00A7
:1004200084E6C89FD0191124CDECDC9FC12D112486
:10043000C695C695C69561E0610F402F80E38C0F8D
:100440000E94DC0062E0610FCC0F8C2F880F880FB8
:10045000C80F80E38D0F402F8C1B0E94DC00DF91C2
:10046000CF911F910F910895EF92FF920F931F93D9
:10047000CF93DF93042F162FC7E0D0E0E82EF12CA6
:1004800097010C2E02C0359527950A94E2F720FFBC
:1004900006C0402F612F81E30E94DC0005C0402F81
:1004A000612F80E30E94DC001F5F219748F7DF91F6
:1004B000CF911F910F91FF90EF9008953C9A08956E
:1004C000449A0895449808950E9453000E945E0241
:1004D0000E94F3010E94B9000E94EA000E94B40148
:1004E00081EE94E00197F1F700C000000895CF93EA
:1004F000DF93CDB7DEB7A0970FB6F894DEBF0FBE7F
:10050000CDBFFE01319680E2DF011D928A95E9F7A9
:100510000E9460020E94AD0011E0F12C01E00E94F7
:1005200055008823B9F0111108C00E947A010E9479
:1005300060020E94B900102F07C00E9485010E942E
:1005400062020E94BD001F2D87EA91E60197F1F734
:1005500000C00000113019F763E0CE0101960E943F
:10056000ED00402F602F0E94340242E0602F89810D
:100570000E94FF0142E065E08A810E94FF0142E0A3
:1005800068E08B810E94FF01A3EDB0E31197F1F7C2
:1005900000C00000C4CF0E9464020E947702389A13
:1005A000399A259A239A24984098419A0895409818
:1005B0000895409A0895682F2D9897E080E070E0A4
:1005C000E1E0F0E0492F9B01092E02C03595279507
:1005D0000A94E2F720FF02C02B9A01C02B982D9AB3
:1005E0001C9B07C09F0102C0220F331F4A95E2F7F0
:1005F000822B2D98915030F70895419881EE0E94FA
:10060000DB02419A0895419882EE0E94DB02419AF2
:1006100008952D9897E0482F50E09A01092E02C0C6
:10062000359527950A94E2F720FF02C02B9A01C066
:100630002B982D9A2D98915080F70895CF93DF93A2
:10064000D62F41988F7180620E94DB02C82F8D2FB8
:100650000E940903419A8C2FDF91CF910895682F52
:1006600080E00E941E030895682F81E00E941E030F
:100670000895682F82E00E941E030895682F83E08A
:100680000E941E030895682F84E00E941E030895AF
:10069000682F85E00E941E030895682F86E00E945F
:1006A0001E030895682F87E00E941E030895682F97
:1006B00081E10E941E030895682F82E10E941E03BB
:1006C0000895682F83E10E941E030895682F84E136
:1006D0000E941E030895682F85E10E941E0308955D
:1006E000682F86E10E941E030895682F8CE10E9406
:1006F0001E030895682F8DE10E941E0308950F9335
:100700001F93CF93DF93662371F0EC016150062FA6
:1007100010E00F5F1F4F080F191F89910E940903F6
:10072000C017D107D1F7DF91CF911F910F91089595
:100730000F931F93CF93DF938B01D42F41988F7129
:1007400080620E94DB02C82F6D2FC8010E947F03C8
:10075000419A8C2FDF91CF911F910F91089545E021
:10076000BC018BE00E94980308952D9897E080E0EB
:1007700041E050E02D9A1C9B08C09A01092E02C04E
:10078000220F331F0A94E2F7822B2D98915090F795
:1007900008950F931F93CF93DF93EC01662389F0A5
:1007A0006150062F10E00F5F1F4F080F191F0E94A6
:1007B000B503899386E08A95F1F700C0C017D10789
:1007C000B1F7DF91CF911F910F9108950F931F9370
:1007D000CF938C01419880E60E94DB02C82F61E034
:1007E000C8010E94C903419A8C2FCF911F910F918C
:1007F00008950F931F93CF93DF938C01D62F4198C9
:1008000081E60E94DB02C82F6D2FC8010E94C90338
:10081000419A8C2FDF91CF911F910F9108950F93E3
:100820001F93CF93DF938B01D42F41988F710E9438
:10083000DB02C82F6D2FC8010E94C903419A8C2F7B
:10084000DF91CF911F910F91089541E0BC0187E0A6
:0A0850000E940F040895F894FFCFF2
:0C085A00999897960101030164010100C8
:00000001FF
