S01200006367776972656C6573732E73726563DA
S11300000C9434000C9451000C9451000C94510045
S11300100C948A020C9451000C9451000C945100DD
S11300200C9451000C9451000C9451000C94510008
S11300300C9451000C9451000C9451000C945100F8
S11300400C9451000C9451000C9451000C945100E8
S11300500C9451000C9451000C9451000C945100D8
S11300600C9451000C94510011241FBECFEFD8E022
S1130070DEBFCDBF11E0A0E0B1E0E0E0F9E002C0F6
S113008005900D92A03DB107D9F721E0A0EDB1E0B4
S113009001C01D92A43DB207E1F70E941E030C9417
S11300A07E040C940000509A519A529A539A549A8E
S11300B0559A569A579A229A219A209A08955798AF
S11300C02A98299A289A28984F99FCCF579A2998C0
S11300D00895882314F45F9A01C05F9886FF02C0D4
S11300E05E9A01C05E9885FF02C05D9A01C05D986A
S11300F084FF02C05C9A01C05C9883FF02C05B9AD3
S113010001C05B9882FF02C05A9A01C05A9881FFCD
S113011002C0599A01C0599880FF02C0589A0895A4
S113012058980895CF93C82F61110E945F008C2FB7
S11301300E9469002A982998289A2898CF910895AE
S113014061E00E949200089581E00E94A000089559
S113015082E00E94A000089586E00E94A000089515
S11301608CE00E94A000089588E00E94A0000895F9
S1130170CF93C82F0E945F008C2F0E9469002A9A97
S11301802998289A2898CF910895623011F420E490
S113019001C020E09EEF980F973218F49FEF980F5C
S11301A0292B822F0895CF93C82F862F642F0E9466
S11301B0C50080680E94A0008C2F0E94B800CF91D7
S11301C008950E9422030895CF93DF931F92CDB721
S11301D0DEB71982CE0101960E947804898186FBDC
S11301E0882780F90F90DF91CF910895EF92FF92C5
S11301F01F93CF93DF9300D0CDB7DEB77C01162FCA
S11302001982CE0101960E9439046981662351F056
S1130210161720F0C7010E944C0404C0612FC701C7
S11302200E944C041A82CE0102960E9478048A81AC
S113023086FF03C080E40E94A5038A810F900F907B
S1130240DF91CF911F91FF90EF9008958091D1019C
S1130250813011F48FE301C080E00E948703089588
S113026080910501813011F483E001C080E00E9497
S1130270C803089580910501813089F09091D101DE
S1130280913039F4813039F480E001C084E0836036
S113029003C080E001C082E00E94CD0308958091F4
S11302A0D101813099F384E0F7CF8091D0010E948D
S11302B0AF030895CF9380910A01813021F08230F9
S11302C021F48CE003C088E001C080E09091090132
S11302D0911101C082609091D201913009F4816042
S11302E00E948203C82F8091D201813049F4809109
S11302F00901811103C00E942C0302C00E942A0339
S11303008C2FCF91089580910901882329F01092B0
S113031009010E945A01089580E00895809109011D
S1130320811106C081E0809309010E945A01089559
S113033080E00895809108010E949B0308958091B4
S11303400701813011F488E001C080E0909106013A
S1130350992359F0913011F4826007C0923011F45E
S1130360846003C0933009F486600E94A00308955A
S113037080E091E00E9402040895CF9380E00E94FF
S1130380AA0380E00E94B40380E00E94B90380E0E5
S11303900E94BE0380E00E94C3030E94260183E002
S11303A00E948C038FE10E94960383E00E949103D4
S11303B00E9430010E943A010E9455010E949A0154
S11303C00E949F01E0E0F1E0C1E0C08382E081830C
S11303D083E0828384E08383C4830E94B8010E9403
S11303E056030E94500380E70E94A503C093D201E4
S11303F00E948301CF9108950E94530088E30E94D4
S1130400A0000E94A8000E94AC000E94A4000895CD
S11304100F931F93CF93DF93D82F162F042FC9E286
S11304208C9FC12D1124C295CF7080E38C0F0E9444
S1130430D30084E6C89FD0191124CDECDC9FC12DD4
S11304401124C695C695C69561E0610F402F80E3DF
S11304508C0F0E94D30062E0610FCC0F8C2F880FA9
S1130460880FC80F80E38D0F402F8C1B0E94D30090
S1130470DF91CF911F910F910895EF92FF920F9307
S11304801F93CF93DF93042F162FC7E0D0E0E82EFD
S1130490F12C97010C2E02C0359527950A94E2F7AA
S11304A020FF06C0402F612F81E30E94D30005C0C6
S11304B0402F612F80E30E94D3001F5F219748F7EC
S11304C0DF91CF911F910F91FF90EF900895FF92CC
S11304D00F931F93CF93DF93662381F0F22EC42FE3
S11304E0D42FD60F082F192F4F2D6C2FF80181917F
S11304F08F010E94D300CF5FDC13F6CFDF91CF9141
S11305001F910F91FF9008953C9A0895449A08957D
S1130510449808951F920F920FB60F9211248F934F
S113052035990AC08091D301811104C081E0809380
S1130530D30102C01092D3018F910F900FBE0F9080
S11305401F9018953D98ECE6F0E0808180628083EE
S1130550E8E6F0E0808182608083789408950E94C8
S1130560A2020E9484020E94FC010E94B0000E9428
S1130570E1000E94BD010E94860281EE94E0019791
S1130580F1F700C000000895CF93DF93CDB7DEB735
S1130590A0970FB6F894DEBF0FBECDBFFE01319613
S11305A080E2DF011D928A95E9F721E041E069E0EC
S11305B08BE091E00E94670281E08093D30110E018
S11305C001C081E09091D301891789F0811107C09E
S11305D00E9483010E9486020E94B0000AC00E9409
S11305E08E010E9488020E94B400812FEBCF8130DB
S11305F049F70E94E400813021F763E0CE010196BF
S11306000E94F60041E061E00E943D0221E049E0E1
S113061061E089E291E00E94670242E061E0898141
S11306200E94080242E065E08A810E94080242E0DA
S113063068E08B810E94080281E0C4CF0E94AF026F
S11306400E94C402389A399A259A239A2498409889
S1130650419A089540980895409A0895682F2D98D6
S113066097E080E070E0E1E0F0E0492F9B01092E83
S113067002C0359527950A94E2F720FF02C02B9A11
S113068001C02B982D9A1C9B07C09F0102C0220F0A
S1130690331F4A95E2F7822B2D98915030F7089535
S11306A0419881EE0E942E03419A0895419882EE6A
S11306B00E942E03419A08952D9897E0482F50E008
S11306C09A01092E02C0359527950A94E2F720FF76
S11306D002C02B9A01C02B982D9A2D98915080F727
S11306E00895CF93DF93D62F41988F7180620E9433
S11306F02E03C82F8D2F0E945C03419A8C2FDF910B
S1130700CF910895682F80E00E9471030895682FA7
S113071081E00E9471030895682F82E00E947103B2
S11307200895682F83E00E9471030895682F84E080
S11307300E9471030895682F85E00E947103089553
S1130740682F86E00E9471030895682F87E00E9455
S113075071030895682F81E10E9471030895682F41
S113076082E10E9471030895682F83E10E9471035E
S11307700895682F84E10E9471030895682F85E12C
S11307800E9471030895682F86E10E947103089501
S1130790682F8CE10E9471030895682F8DE10E94F7
S11307A0710308950F931F93CF93DF93662371F022
S11307B0EC016150062F10E00F5F1F4F080F191F47
S11307C089910E945C03C017D107D1F7DF91CF91C3
S11307D01F910F9108950F931F93CF93DF938B0174
S11307E0D42F41988F7180620E942E03C82F6D2FE1
S11307F0C8010E94D203419A8C2FDF91CF911F919F
S11308000F91089545E0BC018BE00E94EB0308952D
S11308102D9897E080E041E050E02D9A1C9B08C0A1
S11308209A01092E02C0220F331F0A94E2F7822B89
S11308302D98915090F708950F931F93CF93DF93C2
S1130840EC01662389F06150062F10E00F5F1F4F03
S1130850080F191F0E940804899386E08A95F1F70E
S113086000C0C017D107B1F7DF91CF911F910F914D
S113087008950F931F93CF938C01419880E60E94B3
S11308802E03C82F61E0C8010E941C04419A8C2FDA
S1130890CF911F910F9108950F931F93CF93DF93DF
S11308A08C01D62F419881E60E942E03C82F6D2F0C
S11308B0C8010E941C04419A8C2FDF91CF911F9193
S11308C00F9108950F931F93CF93DF938B01D42F30
S11308D041988F710E942E03C82F6D2FC8010E946A
S11308E01C04419A8C2FDF91CF911F910F91089591
S11308F041E0BC0187E00E9462040895F894FFCFB0
S113090099989796010103016401014C6973746518
S11309106E696E6700434F4E4649472020202000F1
S1130920454E204141202020202000454E20525891
S113093041444452200053455455502041572020EF
S113094000534554555020524554520052462043BA
S11309504820202020200052462053455455502042
S1130960200053544154555320202020004F42531B
S11309704552564520545800525820505720503064
S11309802020005258205057205031202000464942
S1130990464F2053544154200044594E5044202083
S11309A02020200046454154555245202020005423
S11309B058414444522020202000525820414444AD
S11309C052205030005258204144445220503100AB
S9030000FC
