:100000000C9434000C9451000C9451000C94510049
:100010000C946D020C9451000C9451000C945100FE
:100020000C9451000C9451000C9451000C9451000C
:100030000C9451000C9451000C9451000C945100FC
:100040000C9451000C9451000C9451000C945100EC
:100050000C9451000C9451000C9451000C945100DC
:100060000C9451000C94510011241FBECFEFD8E026
:10007000DEBFCDBF11E0A0E0B1E0E2ECF8E002C0ED
:1000800005900D92A432B107D9F721E0A4E2B1E0C6
:1000900001C01D92A832B207E1F70E94F9020C9448
:1000A0005F040C940000509A519A529A539A549AB1
:1000B000559A569A579A229A219A209A08955798B3
:1000C0002A98299A289A28984F99FCCF579A2998C4
:1000D0000895882314F45F9A01C05F9886FF02C0D8
:1000E0005E9A01C05E9885FF02C05D9A01C05D986E
:1000F00084FF02C05C9A01C05C9883FF02C05B9AD7
:1001000001C05B9882FF02C05A9A01C05A9881FFD1
:1001100002C0599A01C0599880FF02C0589A0895A8
:1001200058980895CF93C82F61110E945F008C2FBB
:100130000E9469002A982998289A2898CF910895B2
:1001400061E00E949200089581E00E94A00008955D
:1001500082E00E94A000089586E00E94A000089519
:100160008CE00E94A000089588E00E94A0000895FD
:10017000CF93C82F0E945F008C2F0E9469002A9A9B
:100180002998289A2898CF910895623011F420E494
:1001900001C020E09EEF980F973218F49FEF980F60
:1001A000292B822F0895CF93C82F862F642F0E946A
:1001B000C50080680E94A0008C2F0E94B800CF91DB
:1001C00008950E94FD020895CF93DF931F92CDB74B
:1001D000DEB71982CE0101960E945904898186FBFF
:1001E000882780F90F90DF91CF910895EF92FF92C9
:1001F0001F93CF93DF9300D0CDB7DEB77C01162FCE
:100200001982CE0101960E9414046981662351F07F
:10021000161720F0C7010E94270404C0612FC701F0
:100220000E9427041A82CE0102960E9459048A81F4
:1002300086FF03C080E40E9480038A810F900F90A4
:10024000DF91CF911F91FF90EF900895809125014C
:10025000813011F48FE301C080E00E9462030895B1
:1002600080910501813011F483E001C080E00E949B
:10027000A303089580910501813089F090912501B3
:10028000913039F4813039F480E001C084E083603A
:1002900003C080E001C082E00E94A803089580911D
:1002A0002501813099F384E0F7CF809124010E94E9
:1002B0008A030895CF9380910A01813021F0823022
:1002C00021F48CE003C088E001C080E09091090136
:1002D000911101C0826090912601913009F48160F2
:1002E0000E945D03C82F80912601813049F48091DE
:1002F0000901811103C00E94070302C00E94050387
:100300008C2FCF91089580910901882329F01092B4
:1003100009010E945A01089580E008958091090121
:10032000811106C081E0809309010E945A0108955D
:1003300080E00895809108010E94760308958091DD
:100340000701813011F488E001C080E0909106013E
:10035000992359F0913011F4826007C0923011F462
:10036000846003C0933009F486600E947B03089583
:1003700080E091E00E94DD030895CF9380E00E9429
:10038000850380E00E948F0380E00E94940380E058
:100390000E94990380E00E949E030E94260183E050
:1003A0000E9467038FE10E94710383E00E946C0347
:1003B0000E9430010E943A010E9455010E949A0158
:1003C0000E949F01E0E0F1E0C1E0C08382E0818310
:1003D00083E0828384E08383C4830E94B8010E9407
:1003E00031030E942B0380E70E948003C093260103
:1003F0000E948301CF910895CF93DF931F92CDB7D1
:10040000DEB71982CE0101960E94530441E068E0F4
:1004100089810E941B020F90DF91CF9108950E9465
:10042000530088E30E94A0000E94A8000E94AC0034
:100430000E94A40008950F931F93CF93DF93D82FAA
:10044000162F042FC9E28C9FC12D1124C295CF70A5
:1004500080E38C0F0E94D30084E6C89FD01911243A
:10046000CDECDC9FC12D1124C695C695C69561E0E3
:10047000610F402F80E38C0F0E94D30062E0610F78
:10048000CC0F8C2F880F880FC80F80E38D0F402F63
:100490008C1B0E94D300DF91CF911F910F91089583
:1004A000FF920F931F93CF93DF93662381F0F22E79
:1004B000C42FD42FD60F082F192F4F2D6C2FF801D2
:1004C00081918F010E94D300CF5FDC13F6CFDF91C3
:1004D000CF911F910F91FF9008951F920F920FB629
:1004E0000F9211248F9335990AC0809127018111B1
:1004F00004C081E08093270102C0109227018F91F0
:100500000F900FBE0F901F9018953D98ECE6F0E00D
:10051000808180628083E8E6F0E080818260808371
:10052000789408953C9A0895449A089544980895BB
:100530000E9485020E9492020E940F020E94B00057
:100540000E94E1000E94BD010E94940281EE94E0AD
:100550000197F1F700C000000895CF93DF93CDB766
:10056000DEB7A0970FB6F894DEBF0FBECDBFFE0179
:10057000319680E2DF011D928A95E9F721E041E0A2
:1005800066E08BE091E00E9450020E94FC0181E055
:100590008093270100E010E001C081E090912701E5
:1005A000891789F0811107C00E9483010E9494027B
:1005B0000E94B0000AC00E948E010E9496020E9412
:1005C000B400812FEBCF813049F70E94E4008130E5
:1005D00031F463E0CE0101960E94F6000F5F043013
:1005E000E1F642E061E089810E941B0200E081E0C7
:1005F000D5CF0E9498020E94AD02389A399A259A66
:10060000239A24984098419A089540980895409AD2
:100610000895682F2D9897E080E070E0E1E0F0E029
:10062000492F9B01092E02C0359527950A94E2F7C0
:1006300020FF02C02B9A01C02B982D9A1C9B07C04B
:100640009F0102C0220F331F4A95E2F7822B2D989B
:10065000915030F70895419881EE0E940903419A24
:100660000895419882EE0E940903419A08952D98B9
:1006700097E0482F50E09A01092E02C03595279542
:100680000A94E2F720FF02C02B9A01C02B982D9A02
:100690002D98915080F70895CF93DF93D62F4198EE
:1006A0008F7180620E940903C82F8D2F0E9437032B
:1006B000419A8C2FDF91CF910895682F80E00E949E
:1006C0004C030895682F81E00E944C030895682F21
:1006D00082E00E944C030895682F83E00E944C033F
:1006E0000895682F84E00E944C030895682F85E0E8
:1006F0000E944C030895682F86E00E944C030895E1
:10070000682F87E00E944C030895682F81E10E94C2
:100710004C030895682F82E10E944C030895682FCE
:1007200083E10E944C030895682F84E10E944C03EA
:100730000895682F85E10E944C030895682F86E193
:100740000E944C030895682F8CE10E944C03089589
:10075000682F8DE10E944C0308950F931F93CF9350
:10076000DF93662371F0EC016150062F10E00F5FFC
:100770001F4F080F191F89910E943703C017D10717
:10078000D1F7DF91CF911F910F9108950F931F9390
:10079000CF93DF938B01D42F41988F7180620E9499
:1007A0000903C82F6D2FC8010E94AD03419A8C2FF9
:1007B000DF91CF911F910F91089545E0BC018BE02F
:1007C0000E94C60308952D9897E080E041E050E034
:1007D0002D9A1C9B08C09A01092E02C0220F331FBC
:1007E0000A94E2F7822B2D98915090F708950F9379
:1007F0001F93CF93DF93EC01662389F06150062F9E
:1008000010E00F5F1F4F080F191F0E94E303899329
:1008100086E08A95F1F700C0C017D107B1F7DF91E4
:10082000CF911F910F9108950F931F93CF938C0138
:10083000419880E60E940903C82F61E0C8010E9428
:10084000F703419A8C2FCF911F910F9108950F9329
:100850001F93CF93DF938C01D62F419881E60E949E
:100860000903C82F6D2FC8010E94F703419A8C2FEE
:10087000DF91CF911F910F9108950F931F93CF9305
:10088000DF938B01D42F41988F710E940903C82FE9
:100890006D2FC8010E94F703419A8C2FDF91CF91F1
:1008A0001F910F91089541E0BC0185E00E943D0435
:1008B000089541E0BC0187E00E943D040895F8944A
:0208C000FFCF68
:1008C20099989796010103016401014C697374655B
:1008D2006E002020202020202020202000666F751E
:0408E2006E64000040
:00000001FF
